S0170000466163746F72795F4D6F6E69746F722E73726563EE
S11300000C942A000C945F0C0C94880C0C94B10C86
S11300100C9447000C9447000C9447000C94470040
S11300200C9447000C9447000C94DA0C0C94470091
S11300300C9447000C9447000C9447000C94470020
S11300400C9447000C9447000C9447000C94470010
S11300500C94470011241FBECFE5D8E0DEBFCDBF0E
S113006011E0A0E6B0E0E4E4FEE102C005900D92E8
S1130070A633B107D9F721E0A6E3B1E001C01D9290
S1130080A33CB207E1F70E949F090C94200F0C9443
S113009000008091A6018F5F8093A6011092A401B5
S11300A08091A601843010F01092A6010895EF9279
S11300B0FF920F931F93CF93DF937C018B01EA018F
S11300C0FC01638182810E94DE07F70180819181B6
S11300D00E946807F801638182810E94DE07F801AB
S11300E0808191810E9468076B818A810E94DE076A
S11300F0888199810E946807DF91CF911F910F91A8
S1130100FF90EF90089560E080E00E94DE0788E8A9
S113011090E00E94680760E081E00E94DE078CE9BD
S113012090E00E94680760E082E00E94DE0781EBB5
S113013090E00E94680712C080E00E948E0881113E
S113014004C081E08093A501089582E00E948E0896
S1130150811104C083E08093A50108958091A601D4
S1130160882351F30895CF92DF92EF92FF920F9379
S11301701F93CF93DF936C017B018A01D22FC0E0E0
S113018068C080E00E948E0881115DC091E09C0FE0
S1130190CBEA9C9FC12D1124C6958C2F880FC80FC4
S11301A09C1BC92F50C0C130E9F018F0C23099F13E
S11301B04AC0F60184819581A681B7810196A11D6B
S11301C0B11D84839583A683B78363816B5F82812A
S11301D00E94DE07F60164817581868197810E9401
S11301E07F0731C0F70184819581A681B78101968B
S11301F0A11DB11D84839583A683B7836381675F43
S113020082810E94DE07F70164817581868197816E
S11302100E947F0718C0F80184819581A681B78167
S11302200196A11DB11D84839583A683B783638141
S11302306C5F82810E94DE07F8016481758186818A
S113024097810E947F0782E00E948E08882309F428
S1130250AACF8091A6018D1709F493CFDF91CF9196
S11302601F910F91FF90EF90DF90CF9008950E941F
S113027017090E949B0D7093A1016093A00108C00F
S11302800E9417090E949B0D7093A1016093A00125
S11302908091A0019091A1010A9790F784E00E94B7
S11302A03B080E946F0608C00E9417090E949B0D1C
S11302B07093A1016093A0018091A0019091A1018C
S11302C00A9790F362E087E00E94040C85E0809333
S11302D0A6010895EF92FF920F931F93CF93DF939C
S11302E01F92CDB7DEB77C011982809136019091BF
S11302F03701BE016F5F7F4F05960E94DF0B898136
S11303008F3FB1F5F701108248C0F701E00FF11FEC
S113031080838091380190913901A0913A01B09184
S11303203B012981FC01E45CFE4F2083809138016C
S113033090913901A0913A01B0913B010196A11D20
S1130340B11D8093380190933901A0933A01B09381
S11303503B010F5F1F4F8091360190913701800F51
S1130360911FBE016F5F7F4F05960E94DF0B02C095
S113037000E010E089818111C8CFF701E00FF11F7F
S113038080838091360190913701080F191F0F5F08
S11303901F4F10933701009336010F90DF91CF91D7
S11303A01F910F91FF90EF9008958F929F92AF92BB
S11303B0BF92CF92DF92EF92FF920F931F93CF934E
S11303C0DF93CDB7DEB7C855D1090FB6F894DEBFB9
S11303D00FBECDBFFE01319680E5DF011D928A95E7
S11303E0E9F781E389836396FFAFEEAF6397CE01AC
S11303F0459665969FAF8EAF6597449667969FAF77
S11304008EAF6797449669969FAF8EAF699710E059
S113041000E084C0143058F481E090E08C0F9D1FFC
S1130420B4E11B9F800D911D11240E946A011430B8
S113043089F0E12EF12C84E18E9DF0018F9DF00D69
S1130440112481E090E08C0F9D1FE80FF91F80813B
S1130450811153C082E00E948E0881115FC0143064
S113046008F45CC065968EAC9FAC659763969FAEAE
S11304708EAE63976796AEACBFAC67976596BFAE1A
S1130480AEAE65976996CEACDFAC69976796DFAE82
S1130490CEAE6797EE24E394F12CEC0EFD1E94E1AE
S11304A0099FE00CF11C11246996FFAEEEAE69972A
S11304B00F5F0370C7010E946A018DAD882371F13B
S11304C060E080E00E94DE07C4010E94680760E0EB
S11304D081E00E94DE07C5010E94680760E082E0B7
S11304E00E94DE07C6010E94680760E083E00E9464
S11304F0DE07C7010E94680711C060E0812F0E94D7
S1130500DE07EE0CFF1CE1E5F0E0EC0FFD1FEE0D45
S1130510FF1D808191810E9468071F5F83E00E9414
S11305208E08813009F476CFC85ADF4F0FB6F8949D
S1130530DEBF0FBECDBFDF91CF911F910F91FF9012
S1130540EF90DF90CF90BF90AF909F908F900895E1
S11305500E947B078FE39FE10197F1F700C0000041
S113056060E080E00E94DE0785EC90E00E9468076E
S113057060E081E00E94DE0783ED90E00E9468075E
S113058060E082E00E94DE0785EE90E00E9468074A
S113059080E00E948E08882339F083E00E948E0850
S11305A08111F6CF81E001C080E08823A9F0813079
S11305B0D9F40E947B078FE39FE10197F1F700C014
S11305C000000E94D5010E947B078FE39FE1019701
S11305D0F1F700C0000008950E947B078FE39FE1BC
S11305E00197F1F700C0000008958F929F92AF9297
S11305F0BF92CF92DF92EF92FF920F931F93CF930C
S1130600DF9300D000D01F92CDB7DEB76C014A0152
S11306105B01FE01319685E0DF011D928A95E9F7C1
S113062062EA71E080E090E00E94DF0B8091A20119
S11306309091A3018F3F910521F41092A301109290
S1130640A201E090A201F090A30100E010E011C02B
S1130650C8018E0D9F1D05960E94D10B8091A201A9
S11306609091A30101969093A3018093A2010F5F3F
S11306701F4FF601E00FF11F60816111E9CFC12C1A
S1130680D12C17C0C501B4012AE030E040E050E0AD
S11306900E94C50EE1E0F0E0EC0FFD1FEC0DFD1D26
S11306A0605D6083BFEFCB1ADB0A822E932EA42EEB
S11306B0B52E81149104A104B10421F781E0C81A74
S11306C0D1081BC0C8018E0D9F1DE1E0F0E0EC0FC6
S11306D0FD1FEC0DFD1D608105960E94D10BA1E06C
S11306E0CA1AD1080F5F1F4F8091A2019091A301F4
S11306F001969093A3018093A201DD201CF70E0DB7
S11307001F1D60E0C80105960E94D10B0F5F1F4FAB
S11307101093A3010093A2010F3F110520F0109242
S1130720A3011092A2016091A20180E090E00E94D6
S1130730D10B0F900F900F900F900F90DF91CF91EE
S11307401F910F91FF90EF90DF90CF90BF90AF90EB
S11307509F908F90089567E080E00E94A60982E050
S11307600E94F50B69E470E087E00E94490C80E088
S11307700E94720882E00E94720883E00E9472085C
S11307800E943D070E9474060E945A080E941109A3
S113079084E00E94FD070E94650678940895CF9333
S11307A0DF93CDB7DEB7C055D1090FB6F894DEBFDD
S11307B00FBECDBF88E0E0E6F0E0DE0111960190C7
S11307C00D928A95E1F788E0E8E6F0E0DE011996FB
S11307D001900D928A95E1F788E0E0E7F0E0DE0110
S11307E0519601900D928A95E1F786EF90E09A8FE9
S11307F0898F1B8E1C8E1D8E1E8E1F8E18A228E0C4
S1130800E8E7F0E0DE01919601900D922A95E1F778
S113081028E0E0E8F0E0DE01999601900D922A9537
S1130820E1F79AAB89AB1BAA1CAA1DAA1EAA1FAA90
S113083018AE88E0E8E7F0E0DE01D99601900D9269
S11308408A95E1F788E0E0E8F0E0DE01AF5BBF4FB6
S113085001900D928A95E1F761961CAE1DAE1EAE15
S11308601FAE61972D961CAE1DAE1EAE1FAE2D970A
S1130870412C512C32018091A601823009F4EDC043
S113088030F4882369F0813009F496C0F4CF8430C1
S113089009F48FC108F432C1853009F492C1EBCF59
S11308A08091A401811117C08091A601811113C008
S11308B00E947B078FE39FE10197F1F700C00000DE
S11308C068E083E00E94DE078CEF90E00E946807F6
S11308D081E08093A4010E9483008091A501882374
S11308E051F20E947B07AFE3BFE11197F1F700C01B
S11308F0000068E083E00E94DE078CEF90E00E9435
S113090068078091A5018230F1F08330A9F181302C
S113091009F04EC04D805E806F8078848D899E89F9
S1130920AF89B88D2D968CAF9DAFAEAFBFAF2D976D
S11309308D859E85AF85B88961968CAF9DAFAEAF2E
S1130940BFAF619735C04D8C5E8C6F8C78A08DA540
S11309509EA5AFA5B8A92D968CAF9DAFAEAFBFAF86
S11309602D978DA19EA1AFA1B8A561968CAF9DAF27
S1130970AEAFBFAF61971CC04DA85EA86FA878AC9E
S113098029968CAD9DADAEADBFAD29972D968CAF9C
S11309909DAFAEAFBFAF2D9721968CAD9DADAEADE3
S11309A0BFAD219761968CAF9DAFAEAFBFAF6197DE
S11309B085E08093A6015FCF8091A401811117C0C7
S11309C08091A601813099F40E947B07AFE3BFE1D7
S11309D01197F1F700C0000068E083E00E94DE0791
S11309E081E091E00E94680781E08093A4016C811A
S11309F08B810E94DE0789819A810E9468076D813C
S1130A007E818F8198850E947F076C858B850E94EB
S1130A10DE0789859A850E9468076D857E858F85A6
S1130A2098890E947F076C898B890E94DE078989D7
S1130A309A890E9468076D897E898F89988D0E94A2
S1130A407F0721E0AE014F5E5F4FBE01675F7F4FBE
S1130A50CE0101960E94B3000ECF8091A4018111B2
S1130A6017C08091A601823099F40E947B078FE31E
S1130A709FE10197F1F700C0000068E083E00E9465
S1130A80DE0784E091E00E94680781E08093A4017E
S1130A906C8D8B8D0E94DE07898D9A8D0E9468076C
S1130AA06D8D7E8D8F8D98A10E947F076CA18BA187
S1130AB00E94DE0789A19AA10E9468076DA17EA108
S1130AC08FA198A50E947F076CA58BA50E94DE07C5
S1130AD089A59AA50E9468076DA57EA58FA598A9EA
S1130AE00E947F0722E0AE01475D5F4FBE016F5D4C
S1130AF07F4FCE0149960E94B300BDCE8091A401E0
S1130B00811117C08091A601833099F40E947B075C
S1130B10AFE3BFE11197F1F700C0000068E083E0A4
S1130B200E94DE0787E091E00E94680781E08093DD
S1130B30A4016CA98BA90E94DE0789A99AA90E9425
S1130B4068076DA97EA98FA998AD0E947F076CAD37
S1130B508BAD0E94DE0789AD9AAD0E94680721968D
S1130B606CAD7DAD8EAD9FAD21970E947F0725961C
S1130B706FAD259724968FAD24970E94DE072396A8
S1130B808EAD9FAD23970E94680729966CAD7DAD0D
S1130B908EAD9FAD29970E947F0723E0AE014F5B86
S1130BA05F4FBE01675C7F4FCE01C1960E94B300C8
S1130BB062CE0E9437010E94A80285E08093A601BC
S1130BC05ACEAE014F5E5F4FBE01675F7F4FCE01CD
S1130BD001960E94570073C00E946308C82ED12C4E
S1130BE0E12CF12CC701B6012AE030E040E050E0EE
S1130BF00E94C50E49015A01B5E08B0E911CA11C3F
S1130C00B11C6C816B5F8B810E94DE07C701B6014A
S1130C100E947F076C85675F8B850E94DE07C50194
S1130C20B4010E947F076C896C5F8B890E94DE0788
S1130C306AE070E080E090E00E947F07C414D5046D
S1130C40E604F70490F0B701A6018AE091E00E945F
S1130C50F50287E00E94360C84E00E941C080E9482
S1130C606A0684E08093A6012AC02D968CAD9DADC2
S1130C70AEADBFAD2D970B97A105B10560F44AE069
S1130C8050E060E070E084E191E00E94F50284E0CD
S1130C908093A60114C061968CAD9DADAEADBFAD81
S1130CA0619788169906AA06BB0648F0B501A40107
S1130CB08DE191E00E94F50284E08093A601809189
S1130CC0A601853009F488CFD6CD61E084E20E9484
S1130CD0F209089561E084E20E947B0A089560E0CD
S1130CE084E20E947B0A089560E08BE00E94F2098E
S1130CF060E08BE00E94480B0895CF93C82F61E019
S1130D008DE00E947B0AC4FB662760F984E10E949F
S1130D107B0AC5FB662760F985E10E947B0AC6FB56
S1130D20662760F986E10E947B0A6C2F661F66279E
S1130D30661F88E10E947B0A61E08CE00E947B0AC6
S1130D408FE99FE00197F1F700C0000060E08CE0BC
S1130D500E947B0A8FE99FE00197F1F700C0000031
S1130D606C2F617084E10E947B0AC1FB662760F9E5
S1130D7085E10E947B0AC2FB662760F986E10E9436
S1130D807B0AC3FB662760F988E10E947B0A61E065
S1130D908CE00E947B0A8FE99FE00197F1F700C085
S1130DA0000060E08CE00E947B0A8FE19EE40197E2
S1130DB0F1F700C00000CF910895CF93C82F60E0F1
S1130DC08DE00E947B0AC4FB662760F984E10E94DF
S1130DD07B0AC5FB662760F985E10E947B0AC6FB96
S1130DE0662760F986E10E947B0A6C2F661F6627DE
S1130DF0661F88E10E947B0A61E08CE00E947B0A06
S1130E008FE99FE00197F1F700C0000060E08CE0FB
S1130E100E947B0A8FE99FE00197F1F700C0000070
S1130E206C2F617084E10E947B0AC1FB662760F924
S1130E3085E10E947B0AC2FB662760F986E10E9475
S1130E407B0AC3FB662760F988E10E947B0A61E0A4
S1130E508CE00E947B0A8FE99FE00197F1F700C0C4
S1130E60000060E08CE00E947B0A8FE19EE4019721
S1130E70F1F700C00000CF91089561E084E10E9481
S1130E80F20961E085E10E94F20961E086E10E94D5
S1130E90F20961E088E10E94F20961E08DE00E94BC
S1130EA0F20961E08CE00E94F20983E30E94DD060E
S1130EB082E30E94DD0688E20E94DD068CE00E9447
S1130EC0DD0682E00E94DD0681E00E94DD060895D1
S1130ED00F931F93CF938C01C0E003C00E947D0643
S1130EE0CF5FF801EC0FF11D80818111F7CFCF9115
S1130EF01F910F91089581E00E94DD060895CF921D
S1130F00DF92EF92FF921F93CF93DF93CDB7DEB7BB
S1130F102A970FB6F894DEBF0FBECDBF6B017C01DC
S1130F20FE0131968AE0DF011D928A95E9F7FF20E0
S1130F305CF4F094E094D094C094C11CD11CE11CE6
S1130F40F11C8DE20E947D0610E0C701B6012AE083
S1130F5030E040E050E00E94E70EE1E0F0E0EC0F0A
S1130F60FD1FE10FF11D17FDFA956083C22ED32EEC
S1130F70E42EF52E1F5FC114D104E104F10429F716
S1130F800DC01150E1E0F0E0EC0FFD1FE10FF11D89
S1130F9017FDFA958081805D0E947D0611168CF301
S1130FA02A960FB6F894DEBF0FBECDBFDF91CF9166
S1130FB01F91FF90EF90DF90CF900895CF93DF9330
S1130FC000D000D0CDB7DEB790E8998390EC9A8337
S1130FD094E99B8394ED9C83E1E0F0E0EC0FFD1F2A
S1130FE0E80FF11D8081860F0E94DD060F900F909F
S1130FF00F900F90DF91CF910895823071F018F423
S1131000813031F00895833069F0843081F008959F
S113101061E080E10E94F209089561E08FE00E949E
S1131020F209089561E08EE00E94F209089561E0FA
S11310308BE10E94F2090895823071F018F4813036
S113104031F00895833069F0843081F0089561E0CF
S113105080E10E947B0A089561E08FE00E947B0A90
S1131060089561E08EE00E947B0A089561E08BE1BF
S11310700E947B0A0895823071F018F4813031F0B7
S11310800895833069F0843081F0089560E080E150
S11310900E947B0A089560E08FE00E947B0A089515
S11310A060E08EE00E947B0A089560E08BE10E947C
S11310B07B0A089560E08AE00E94F20960E08AE019
S11310C00E94480B089580E00E94DF099C01ADEC6A
S11310D0BCEC0E94060F96958795969587959695F4
S11310E087950895813059F028F0823069F0833073
S11310F081F0089560E08FE20E94F209089560E0B3
S11311008EE20E94F209089560E08DE20E94F209E5
S1131110089560E08BE20E94F2090895813009F19C
S113112030F08230C1F1833009F44FC068C08FE2DF
S11311300E94040B811165C02FEF80E792E02150DB
S113114080409040E1F700C000008FE20E94040B51
S1131150811159C08FE20E94040B8823D9F380E0E7
S113116008958EE20E94040B81114FC02FEF80E797
S113117092E0215080409040E1F700C000008EE2F0
S11311800E94040B811143C08EE20E94040B882349
S1131190D9F380E008958DE20E94040B811139C0D7
S11311A02FEF80E792E0215080409040E1F700C0AB
S11311B000008DE20E94040B81112DC08DE20E947B
S11311C0040B8823D9F380E008958BE20E94040B7A
S11311D0811123C02FEF80E792E02150804090409E
S11311E0E1F700C000008BE20E94040B811117C0DC
S11311F08BE20E94040B8823D9F380E0089581E0F8
S1131200089581E0089581E0089581E0089581E0E2
S1131210089581E0089581E0089581E0089581E0D2
S1131220089561E08EE10E94F2091FBC08951DBC7F
S11312301CBC81E48EBD88B7806288BF61E08EE10A
S11312400E947B0A25E32A95F1F7000060E08EE115
S11312500E947B0A80E090E0DC0107C00196A11D9A
S1131260B11D25E32A95F1F7000008B605FC06C078
S11312708F3F2FEF9207A105B10581F71DBC1CBC60
S113128021E02EBD28B7206228BF07C00196A11D0A
S1131290B11D25E32A95F1F7000008B605FC06C048
S11312A08F3F2FEF9207A105B10581F71092AF018F
S11312B01092B0011092B1011092B201E6B5F7B5E7
S11312C02091AF013091B0014091B1015091B20130
S11312D0AFEFBFEF0E94150F6E0F7F1F811D911D91
S11312E00E94CA0D6093AB017093AC018093AD0171
S11312F09093AE016091AB017091AC018091AD010E
S11313009091AE0129E23CE349EE53E40E94290D99
S113131020E030E040E05FE30E94580E6093A701B4
S11313207093A8018093A9019093AA016091A701E9
S11313307091A8018091A9019091AA0108950E9439
S1131340AB030E94CF0380E090E00895813059F010
S113135018F0823079F014C087B18F7787B987B1DC
S1131360806487B90DC087B18F7787B987B18F7BC8
S113137087B906C087B1806887B987B1806487B9A7
S113138087B18F7D87B986B1887F86B986B1682B8E
S113139066B986B1806886B9089597B1907E97B989
S11313A097B1892B87B986B1806486B93699FECF07
S11313B024B185B190E0982F8827822B08950E944C
S11313C0CD099C01A8E8B3E10E94060FDC01CB0122
S11313D0072E7AE0B695A795979587957A95D1F7D4
S11313E0702D08959DEC899F912D1124292F269508
S11313F026952695220F322F330F330F230F821B8E
S1131400282F969596959695662319F06130E1F10B
S113141008959230A9F018F4913031F00895933082
S1131420D9F0943029F108953AB381E090E002C0F4
S1131430880F991F2A95E2F7809583238ABB089524
S113144037B381E090E002C0880F991F2A95E2F734
S11314508095832387BB089534B381E090E002C074
S1131460880F991F2A95E2F78095832384BB0895FA
S113147031B381E090E002C0880F991F2A95E2F70A
S11314808095832381BB08959230A1F018F49130A4
S113149031F008959330C9F0943011F108953AB3BE
S11314A081E090E002C0880F991F2A95E2F7832B10
S11314B08ABB089537B381E090E002C0880F991F7A
S11314C02A95E2F7832B87BB089534B381E090E03B
S11314D002C0880F991F2A95E2F7832B84BB0895D5
S11314E031B381E090E002C0880F991F2A95E2F79A
S11314F0832B81BB08959DEC899F912D1124292F65
S1131500269526952695220F322F330F330F230F5E
S1131510821B282F969596959695662319F061302F
S1131520E1F108959230A9F018F4913031F0089562
S11315309330D9F0943029F108953BB381E090E0E1
S113154002C0880F991F2A95E2F7809583238BBBED
S1131550089538B381E090E002C0880F991F2A955E
S1131560E2F78095832388BB089535B381E090E04A
S113157002C0880F991F2A95E2F78095832385BBC3
S1131580089532B381E090E002C0880F991F2A9534
S1131590E2F78095832382BB08959230A1F018F47A
S11315A0913031F008959330C9F0943011F10895D9
S11315B03BB381E090E002C0880F991F2A95E2F7BF
S11315C0832B8BBB089538B381E090E002C0880F71
S11315D0991F2A95E2F7832B88BB089535B381E0E0
S11315E090E002C0880F991F2A95E2F7832B85BBF0
S11315F0089532B381E090E002C0880F991F2A95C4
S1131600E2F7832B82BB08959DEC899F912D1124D1
S1131610292F269526952695220F322F330F330F27
S1131620230F821B282F892F8695869586958230D5
S113163091F018F4813031F029C08330A9F084305E
S1131640E1F024C089B390E002C0959587952A956E
S1131650E2F78170089586B390E002C0959587956E
S11316602A95E2F78170089583B390E002C09595BE
S113167087952A95E2F78170089580B390E002C0BF
S1131680959587952A95E2F78170089580E00895ED
S11316909DEC899F912D1124292F26952695269519
S11316A0220F322F330F330F230F821B282F9695CF
S11316B096959695662319F06130E1F1089592307C
S11316C0A9F018F4913031F008959330D9F09430A2
S11316D029F108953BB381E090E002C0880F991F7F
S11316E02A95E2F7809583238BBB089538B381E074
S11316F090E002C0880F991F2A95E2F78095832312
S113170088BB089535B381E090E002C0880F991F2B
S11317102A95E2F78095832385BB089532B381E04F
S113172090E002C0880F991F2A95E2F780958323E1
S113173082BB08959230A1F018F4913031F00895ED
S11317409330C9F0943011F108953BB381E090E0F7
S113175002C0880F991F2A95E2F7832B8BBB08954B
S113176038B381E090E002C0880F991F2A95E2F710
S1131770832B88BB089535B381E090E002C0880FC5
S1131780991F2A95E2F7832B85BB089532B381E034
S113179090E002C0880F991F2A95E2F7832B82BB41
S11317A00895E199FECF9FBB8EBB6DBBF8948CB3BB
S11317B084608CBB8CB382608CBB789408959FBB8F
S11317C08EBB6115710569F08130944060F4E19934
S11317D0FECF8CB381608CBB8DB3FB01808380E032
S11317E0089581E0089582E0089595B7937F95BFA9
S11317F025B790E0880F991F880F991F822B85BF0A
S11318008BB780688BBF0895863029F0873069F0E4
S1131810853059F519C085B78D7F85BF85B7682B8D
S113182065BF8BB780648BBF089585B7837F85BF01
S113183085B770E0660F771F660F771F682B65BF4B
S11318408BB780688BBF0895623039F484B78064A5
S113185084BF8BB780628BBF0895633031F484B743
S11318608F7B84BF8BB780628BBF0895863029F04D
S1131870873039F0853061F408C08BB78F7B8BBF1C
S113188008958BB78F778BBF08958BB78F7D8BBFF0
S11318900895863029F0873041F0853079F40AC004
S11318A07093B8016093B70108957093B601609383
S11318B0B50108957093B4016093B30108951F9224
S11318C00F920FB60F9211242F933F934F935F9370
S11318D06F937F938F939F93AF93BF93EF93FF93F4
S11318E0E091B701F091B801309709F00995FF91A3
S11318F0EF91BF91AF919F918F917F916F915F9184
S11319004F913F912F910F900FBE0F901F901895FC
S11319101F920F920FB60F9211242F933F934F9360
S11319205F936F937F938F939F93AF93BF93EF9343
S1131930FF93E091B501F091B601309709F0099554
S1131940FF91EF91BF91AF919F918F917F916F9193
S11319505F914F913F912F910F900FBE0F901F9069
S113196018951F920F920FB60F9211242F933F9345
S11319704F935F936F937F938F939F93AF93BF9393
S1131980EF93FF93E091B301F091B401309709F024
S11319900995FF91EF91BF91AF919F918F917F91A5
S11319A06F915F914F913F912F910F900FBE0F90C8
S11319B01F9018951F920F920FB60F9211242F9318
S11319C03F934F935F936F937F938F939F93AF93C3
S11319D0BF93EF93FF938091B9019091BA01A091C5
S11319E0BB01B091BC010196A11DB11D8093B90149
S11319F09093BA01A093BB01B093BC014091BD0187
S1131A005091BE016091BF017091C0018417950788
S1131A10A607B70769F4E091C101F091C2010995E5
S1131A201092B9011092BA011092BB011092BC013C
S1131A30FF91EF91BF91AF919F918F917F916F91A2
S1131A405F914F913F912F910F900FBE0F901F9078
S1131A5018950E943D0D0C941E0E0E94170E58F00E
S1131A600E94100E40F029F45F3F29F00C94070EF9
S1131A7051110C94520E0C940D0E0E942F0E68F30B
S1131A809923B1F3552391F3951B550BBB27AA2733
S1131A9062177307840738F09F5F5F4F220F331F6D
S1131AA0441FAA1FA9F335D00E2E3AF0E0E832D035
S1131AB091505040E695001CCAF72BD0FE2F29D038
S1131AC0660F771F881FBB1F261737074807AB070A
S1131AD0B0E809F0BB0B802DBF01FF2793585F4F7F
S1131AE03AF09E3F510578F00C94070E0C94520E78
S1131AF05F3FE4F3983ED4F3869577956795B79561
S1131B00F7959F5FC9F7880F911D9695879597F96B
S1131B100895E1E0660F771F881FBB1F62177307E4
S1131B208407BA0720F0621B730B840BBA0BEE1FF9
S1131B3088F7E09508950E94370E88F09F5798F033
S1131B40B92F9927B751B0F0E1F0660F771F881FBE
S1131B50991F1AF0BA95C9F714C0B13091F00E94D8
S1131B60510EB1E008950C94510E672F782F8827F9
S1131B70B85F39F0B93FCCF3869577956795B395FF
S1131B80D9F73EF490958095709561957F4F8F4F6E
S1131B909F4F0895E89409C097FB3EF49095809573
S1131BA0709561957F4F8F4F9F4F9923A9F0F92F1F
S1131BB096E9BB279395F695879577956795B7959D
S1131BC0F111F8CFFAF4BB0F11F460FF1BC06F5F83
S1131BD07F4F8F4F9F4F16C0882311F096E911C095
S1131BE0772321F09EE8872F762F05C0662371F0B6
S1131BF096E8862F70E060E02AF09A95660F771FCA
S1131C00881FDAF7880F9695879597F9089597F9BD
S1131C109F6780E870E060E008959FEF80EC08958E
S1131C2000240A94161617061806090608950024B7
S1131C300A9412161306140605060895092E039431
S1131C40000C11F4882352F0BB0F40F4BF2B11F4A5
S1131C5060FF04C06F5F7F4F8F4F9F4F089557FD04
S1131C609058440F551F59F05F3F71F04795880F06
S1131C7097FB991F61F09F3F79F08795089512169D
S1131C8013061406551FF2CF4695F1DF08C0161649
S1131C9017061806991FF1CF8695710561050894FA
S1131CA00895E894BB2766277727CB0197F9089511
S1131CB00E946B0E0C941E0E0E94100E38F00E94AF
S1131CC0170E20F0952311F00C94070E0C940D0EB2
S1131CD011240C94520E0E942F0E70F3959FC1F3A1
S1131CE0950F50E0551F629FF001729FBB27F00DC6
S1131CF0B11D639FAA27F00DB11DAA1F649F66271B
S1131D00B00DA11D661F829F2227B00DA11D621F69
S1131D10739FB00DA11D621F839FA00D611D221F23
S1131D20749F3327A00D611D231F849F600D211D07
S1131D30822F762F6A2F11249F5750409AF0F1F08A
S1131D4088234AF0EE0FFF1FBB1F661F771F881FF3
S1131D5091505040A9F79E3F510580F00C94070E16
S1131D600C94520E5F3FE4F3983ED4F38695779536
S1131D706795B795F795E7959F5FC1F7FE2B880F99
S1131D80911D9695879597F90895A1E21A2EAA1B9D
S1131D90BB1BFD010DC0AA1FBB1FEE1FFF1FA21717
S1131DA0B307E407F50720F0A21BB30BE40BF50B14
S1131DB0661F771F881F991F1A9469F7609570959D
S1131DC0809590959B01AC01BD01CF010895052E2E
S1131DD097FB1EF400940E94FE0E57FD07D00E944C
S1131DE0C50E07FC03D04EF40C94FE0E509540959E
S1131DF0309521953F4F4F4F5F4F089590958095B3
S1131E00709561957F4F8F4F9F4F0895A29FB001AA
S1131E10B39FC001A39F700D811D1124911DB29F1A
S1131E20700D811D1124911D08950E94060FA59F18
S1131E30900DB49F900DA49F800D911D11240895C1
S1071E40F894FFCF40
S1131E44F600000023000000270101004600000002
S1131E5431010200500000002701010000000000CD
S1131E643101020000000000507265737320504277
S1131E743120666F72204669727374005072657300
S1131E84732050423220666F72205365636F6E6410
S1131E940050726573732050423320666F7220546D
S1131EA46869726400446973706C6179204C6F676B
S1131EB4733F0050726573732050423420666F720E
S1131EC42059657300507265737320504230206644
S1131ED46F72204E6F0054656D703A004D41494E47
S1131EE40050310050320050330054656D70205757
S1131EF46173200047617320576173200048756D36
S1131F046420576173200048756D69646974793A73
S1091F14004761733A006E
S9030000FC
